:0400000042EF3FF09C
:107E640007000B0003000A0002000800000E956ED4
:107E7400000E946E000E7F6E9368000E836E1200E7
:107E8400640EF66E7E0EF76E000EF86E00EE75F060
:107E940010EE0CF00900F5CFEEFFE550E150FAE1E9
:107EA400000171EF3FF020EE75F010EE64F00B0E60
:107EB400DBCFE3FFE806FCE2D89000016035D96E21
:107EC4006135DA6E640ED926000EDA22DF50826E36
:107ED400000162B102D0839001D08380120038EC9B
:107EE4003FF0000E0001726F000E716F000E000172
:107EF400746F000E736F000E0001726F000E716FCD
:107F0400000172BF8FEF3FF0725109E1060E715DFF
:107F1400D8A08FEF3FF091EF3FF093EF3FF0B8EF31
:107F24003FF071C060F072C061F0000E0001636F39
:107F3400010E626F55EC3FF0A30E0001706F550EF9
:107F4400E82EFED7702FFCD70001714B722B000175
:107F540072BFB6EF3FF0725109E1060E715DD8A011
:107F6400B6EF3FF0B8EF3FF093EF3FF0000E0001A3
:107F7400746F000E736F000174BFCAEF3FF0745149
:107F840009E1060E735DD8A0CAEF3FF0CCEF3FF0D5
:107F9400CEEF3FF0F3EF3FF073C060F074C061F0D8
:107FA400000E0001636F000E626F55EC3FF0A30EEC
:107FB4000001706F550EE82EFED7702FFCD700011C
:107FC400734B742B000174BFF1EF3FF0745109E15E
:107FD400060E735DD8A0F1EF3FF0F3EF3FF0CEEF64
:107FE4003FF083AEF8EF3FF0FBEF3FF0838EFCEF02
:0C7FF4003FF0839E73EF3FF000EF00F0C1
:020000040020DA
:08000000FFFFFFFFFFFFFFFF00
:020000040030CA
:0E000000FF081F1EFF8B81FF0FC00FE00F4097
:00000001FF
