:040000004BEF3FF093
:107E760007000B0003000A0002000800000E956EC2
:107E8600000E946E000E7F6E9368000E836E1200D5
:107E9600760EF66E7E0EF76E000EF86E00EE75F03C
:107EA60010EE0CF00900F5CFEEFFE550E150FAE1D7
:107EB60000017AEF3FF020EE75F010EE64F00B0E45
:107EC600DBCFE3FFE806FCE2D89000016035D96E0F
:107ED6006135DA6E640ED926000EDA22DF50826E24
:107EE600000162B102D0839001D08380120041EC80
:107EF6003FF0000E0001726F000E716F000E000160
:107F0600746F000E736F000E0001726F000E716FBA
:107F1600000172BF98EF3FF0725109E1060E715DE4
:107F2600D8A098EF3FF09AEF3FF09CEF3FF0C1EFFB
:107F36003FF071C060F072C061F0000E0001636F27
:107F4600010E626F5EEC3FF0A30E0001706F550EDE
:107F5600E82EFED7702FFCD70001714B722B000163
:107F660072BFBFEF3FF0725109E1060E715DD8A0F6
:107F7600BFEF3FF0C1EF3FF09CEF3FF0000E000176
:107F8600746F000E736F000174BFD3EF3FF074512E
:107F960009E1060E735DD8A0D3EF3FF0D5EF3FF0B1
:107FA600D7EF3FF07CEF3FF073C060F074C061F034
:107FB600000E0001636F000E626F5EEC3FF0A30ED1
:107FC6000001706F550EE82EFED7702FFCD700010A
:107FD600734B742B000174BFFAEF3FF0745109E143
:107FE600060E735DD8A0FAEF3FF0FCEF3FF0D7EF37
:0A7FF6003FF07CEF3FF000EF00F0D9
:020000040020DA
:08000000FFFFFFFFFFFFFFFF00
:020000040030CA
:0E000000FF081F1EFF8B81FF0FC00FE00F4097
:00000001FF
