:0400000032EF3FF0AC
:107E6400000170EF3FF0000E956E000E7F6E936878
:107E7400010E836E12009EAA42EF3FF044EF3FF0E2
:107E84003DEF3FF0AECF60F00001605112009EBAAA
:107E94004EEF3FF050EF3FF053EF3FF0D89054EFE8
:107EA4003FF0D88012000001606FACA25CEF3FF09D
:107EB4005EEF3FF057EF3FF060C0ADFF1200948ECD
:107EC400948C000EB06E190EAF6EB886AC84AC986C
:107ED400AC8AAB88AB8E000E7E6E120035EC3FF0A0
:107EE40061EC3FF0000E0001636F610E55EC3FF052
:107EF40049EC3FF00001D8A082EF3FF084EF3FF05F
:107F0400A2EF3FF03DEC3FF00001626F640E000110
:107F14006219D8A490EF3FF092EF3FF095EF3FF055
:107F2400000E0001636F670E00016219D8A49DEF73
:107F34003FF09FEF3FF0A2EF3FF0010E0001636FAF
:107F4400210E0001616F760EE82EFED7612FFCD75B
:107F540000F000016351D8A4B2EF3FF0B4EF3FF05A
:107F6400CCEF3FF083508324836E8350D8A4BDEFBD
:107F74003FF0BFEF3FF0C1EF3FF0010E836E210EE3
:107F84000001616F760EE82EFED7612FFCD700F05A
:107F9400E2EF3FF0D8908330836E8350D8A4D5EFBE
:107FA4003FF0D7EF3FF0D9EF3FF0800E836E210E04
:107FB4000001616F760EE82EFED7612FFCD700F02A
:107FC40081B0E7EF3FF0E9EF3FF077EF3FF081A0BA
:107FD400EEEF3FF0F0EF3FF0E9EF3FF000016351C7
:107FE400D8B4F7EF3FF0FAEF3FF0010EFBEF3FF0AC
:0C7FF400000E636F77EF3FF000EF00F02D
:020000040020DA
:08000000FFFFFFFFFFFFFFFF00
:020000040030CA
:0E000000FF081F1EFF8B81FF0FC00FE00F4097
:00000001FF
