:0400000039EF3FF0A5
:107E320022EC3FF077EC3FF000F01EEF3FF000EF56
:107E420000F0000E936E000E946E000E7F6E000E18
:107E5200816E010E826E12000000FC00FA00F60034
:107E6200EE00DE0000000200040008001000200006
:107E72005A0EF66E7E0EF76E000EF86E00EE81F070
:107E820010EE18F00900F5CFEEFFE550E150FAE1EF
:107E9200000119EF3FF020EE8DF010EE64F00B0EB2
:107EA200DBCFE3FFE806FCE220EE81F010EE70F09B
:107EB2000B0EDBCFE3FFE806FCE2D8900001603551
:107EC200D96E6135DA6E640ED926000EDA22DF50E1
:107ED200816ED89000016235D96E6335DA6E700E0C
:107EE200D926000EDA22DF50826E1200000E000147
:107EF2007E6F010E7D6F00017EBF89EF3FF07E51E4
:107F020009E1060E7D5DD8A089EF3FF08BEF3FF0CF
:107F12008DEF3FF0FFEF3FF0620E00017C6F650EC8
:107F2200E82EFED77C2FFCD700F000F0000E0001F7
:107F3200806F010E7F6F000180BFA9EF3FF080517B
:107F420009E1060E7F5DD8A0A9EF3FF0ABEF3FF04D
:107F5200ADEF3FF0EDEF3FF07DC060F07EC061F02D
:107F62007FC062F080C063F04CEC3FF0620E000113
:107F72007C6F650EE82EFED77C2FFCD700F000F058
:107F8200060E00017D197E11D8A4CAEF3FF0CCEF96
:107F92003FF0DBEF3FF0060E00017F198011D8A4FD
:107FA200D5EF3FF0D7EF3FF0DBEF3FF0000E816EF1
:107FB200FE0E826E00017F4B802B000180BFEBEF33
:107FC2003FF0805109E1060E7F5DD8A0EBEF3FF054
:107FD200EDEF3FF0ADEF3FF000017D4B7E2B000156
:107FE2007EBFFDEF3FF07E5109E1060E7D5DD8A018
:0E7FF200FDEF3FF0FFEF3FF08DEF3FF012008C
:020000040020DA
:08000000FFFFFFFFFFFFFFFF00
:020000040030CA
:0E000000FF081F1EFF8B81FF0FC00FE00F4097
:00000001FF
