:04000000BEEF3DF022
:1079780083500F0B1200808400F080941200020ED6
:1079880040EC3EF01200000E926E000E936E000E58
:107998007E6E12009EAAD3EF3CF0D5EF3CF0CEEFFE
:1079A8003CF0AECF60F00001605112009EBADFEFEC
:1079B8003CF0E1EF3CF0E4EF3CF0D890E5EF3CF030
:1079C800D88012000001616F83CF60F0F00E0001D3
:1079D8006017000161510F0B00016011836E1200E6
:1079E800948E948C000EB06E190EAF6EB886AC846F
:1079F800AC98AC8AAB88AB8E000E7E6E12000BEC96
:107A08003EF0280E40EC3EF00F0E40EC3EF0010E2A
:107A180040EC3EF0060E40EC3EF0800E40EC3EF0AE
:067A2800AFEC3EF012007D
:107A2F006E696D706F7274656B6F69000000003264
:107A3F00654D6F740000000000000000000033650A
:107A4F004D6F740000000000000000000020EEB039
:107A5F00F010EE83F02C0EDBCFE3FFE806FCE2C75D
:107A6F00EC3CF003EC3DF0F4EC3CF0830E000165D0
:107A7F006F000E666FFEEC3EF000EF00F00001624B
:107A8F006F9DEC3DF0000E956E808080920001623C
:107A9F00390F0BE6EC3CF0BFEC3CF000016251E615
:107AAF00EC3CF0BFEC3CF00F0E956E9DEC3DF012F0
:107ABF000060C062F061C063F069EF3DF0000162E9
:107ACF004B632B62C0D9FF63C0DAFFDF50D8A473BA
:107ADF00EF3DF075EF3DF066EF3DF0000160516254
:107AEF005D606F61516359616F12000804040A11E0
:107AFF001F110002040E111F100E0002041F101E92
:107B0F00101F0008040E111F100E0008041F101E76
:107B1F00101F00040A0E111F100E0008040E010F93
:107B2F00110F00040A0E010F110F00809080828048
:107B3F008400F0BCEC3CF00001606F6039F00B008A
:107B4F0001616F8094808400F0BCEC3CF000016117
:107B5F00138094000161BFB7EF3DF0B9EF3DF09F87
:107B6F00EF3DF08092000161517F0B1200FA0EF68B
:107B7F006E7A0EF76E000EF86E01EE00F010EE400A
:107B8F00F00900F5CFEEFFE550E150FAE12F0EF6C8
:107B9F006E7A0EF76E000EF86E00EEB0F010EE2D4E
:107BAF00F00900F5CFEEFFE550E150FAE100012EAC
:107BBF00EF3DF00001636F0001635146EC3DF000B3
:107BCF0001646FFAEF3DF0C00E40EC3EF00AEF3E5D
:107BDF00F0940E40EC3EF00AEF3EF0D40E40EC3E37
:107BEF00F00AEF3EF000016451940AD8B4EBEF3D78
:107BFF00F0540AD8B4F5EF3DF0140AD8B4F0EF3DC5
:107C0F00F00AEF3EF01200000E956E0D0E000162AD
:107C1F006FFB0EE82EFED7622FFCD700F000F0802E
:107C2F00908092030EE6EC3CF0BFEC3CF0030EE8C4
:107C3F002EFED700F0030EE6EC3CF0BFEC3CF00359
:107C4F000EE82EFED700F0030EE6EC3CF0BFEC3C46
:107C5F00F0030EE82EFED700F0020EE6EC3CF0BF6C
:107C6F00EC3CF0030EE82EFED700F00F0E956E12CF
:107C7F00000001626F9DEC3DF0000E956E809080CC
:107C8F0092000162390F0BE6EC3CF0BFEC3CF000C8
:107C9F00016251E6EC3CF0BFEC3CF0030EE82EFE27
:107CAF00D700F000016205D8B460EF3EF062EF3EFE
:107CBF00F06CEF3EF0020E00016219D8A46AEF3E9D
:107CCF00F06CEF3EF071EF3EF0A60EE82EFED700FF
:107CDF00F000F00F0E956E9DEC3DF0120000016468
:107CEF006F9AEF3EF0000164517F0F800940EC3E28
:107CFF00F0AEEF3EF000016451BF0F800940EC3E43
:107D0F00F0AEEF3EF000016451930F800940EC3E5E
:107D1F00F0AEEF3EF000016451D30F800940EC3E0E
:107D2F00F0AEEF3EF000016351010AD8B47AEF3E96
:107D3F00F0030AD8B482EF3EF0010AD8B48AEF3EBE
:107D4F00F0070AD8B492EF3EF0AEEF3EF0120040CB
:107D5F000E40EC3EF0000E0001656F070E0001654E
:107D6F0065BCEF3EF0BEEF3EF0C0EF3EF0FBEF3EE6
:107D7F00F0000E0001666F070E00016665CAEF3E48
:107D8F00F0CCEF3EF0CEEF3EF0F0EF3EF0000165AD
:107D9F0051080D000EF3240001636F010EF42064EF
:107DAF006F0001665100016325D96E0001000E00BE
:107DBF00016421DA6EDF5046EC3DF00001662B07BF
:107DCF000E00016665EEEF3EF0F0EF3EF0CEEF3EB7
:107DDF00F00001652B070E00016565F9EF3EF0FB22
:107DEF00EF3EF0C0EF3EF0C3EC3CF01200010E008E
:107DFF0001786F000E0001776F65C060F066C0619B
:107E0F00F060EC3DF060C07FF061C080F0000E00CC
:107E1F00017A6F000E796F23EF3FF0680E00017942
:107E2F0025D96E000E7A21DA6EDF6A5F0EE1EC3D26
:107E3F00F00001794B7A2B00017F510001795D7AB7
:107E4F0051800A0001676F00018051800A000167AD
:107E5F0059D8A035EF3FF037EF3FF015EF3FF0DA8D
:107E6F00EC3CF00001D8A03FEF3FF041EF3FF0F6C0
:107E7F00EF3FF0CEEC3CF00001776F000E00017E7B
:107E8F006F000E7D6F6CEF3FF000017D51000165BB
:107E9F0025D96E00017E5100016621DA6E0001774F
:107EAF0051DE18D8A45EEF3FF060EF3FF069EF3F6F
:107EBF00F0680E00017D25D96E000E7E21DA6E016D
:107ECF000EDF6E00017D4B7E2B00017F5100017D87
:107EDF005D7E51800A0001676F00018051800A00AA
:107EEF00016759D8A07EEF3FF080EF3FF04CEF3F96
:107EFF00F0000E0001826F000E816FADEF3FF06852
:107F0F000E00018125D96E000E8221DA6EDE04D8B3
:107F1F00A494EF3FF096EF3FF0AAEF3FF0010E0071
:107F2F0001636F0001812976EC3EF0000181510061
:107F3F00016525D96E0001825100016621DA6EDFDD
:107F4F0050E1EC3DF00001814B822B00017F51008D
:107F5F0001815D8251800A0001676F0001805180AD
:107F6F000A00016759D8A0BFEF3FF0C1EF3FF0877C
:107F7F00EF3FF0000E00017C6F000E7B6FE2EF3FD2
:107F8F00F0680E00017B25D96E000E7C21DA6EDEC3
:107F9F0004D8A4D5EF3FF0D7EF3FF0DCEF3FF0016F
:107FAF000E0001786FF6EF3FF0000E0001786F00C2
:107FBF00017B4B7C2B00017F5100017B5D7C51804D
:107FCF000A0001676F00018051800A00016759D8CC
:107FDF00A0F4EF3FF0F6EF3FF0C8EF3FF00001786D
:107FEF0051D8A4FDEF3FF0FFEF3FF037EF3FF01216
:017FFF000081
:020000040020DA
:08000000FFFFFFFFFFFFFFFF00
:020000040030CA
:0E000000FF081F1EFF8B81FF0FC00FE00F4097
:00000001FF
