:04000000FCEF3CF0E5
:1077C80083500F0B1200808400F080941200020E88
:1077D800CDEC3DF01200000E926E000E936E000E7E
:1077E8007E6E12009EAAFBEF3BF0FDEF3BF0F6EF3A
:1077F8003BF0AECF60F00001605112009EBA07EF77
:107808003CF009EF3CF00CEF3CF0D8900DEF3CF069
:10781800D88012000001616F83CF60F0F00E000184
:107828006017000161510F0B00016011836E120097
:10783800948E948C000EB06E190EAF6EB886AC8420
:10784800AC98AC8AAB88AB8E000E7E6E120000013D
:1078580060516203F3CF64F0F4CF65F060516303C5
:10786800F350652761516203F350652764C060F0E7
:1078780065C061F0120098EC3DF0280ECDEC3DF0AB
:107888000F0ECDEC3DF0010ECDEC3DF0060ECDEC2B
:107898003DF0800ECDEC3DF072EC3EF0120020EE93
:1078A800A9F010EE7CF02C0EDBCFE3FFE806FCE23B
:1078B800EFEC3BF03FEC3CF01CEC3CF07C0E0001A4
:0E78C800796F000E7A6F1FEC3DF000EF00F0BC
:1078D700706F727461626C65000000000000003216
:1078E700654D6F7400000000000000000000336564
:1078F7004D6F740000000000000000000001000050
:10790700000001626FDBEC3CF0000E956E8080801A
:1079170092000162390F0B0EEC3CF0E7EC3BF000F4
:107927000162510EEC3CF0E7EC3BF00F0E956EDB7D
:10793700EC3CF0120060C062F061C063F0A7EF3C5E
:10794700F00001624B632B62C0D9FF63C0DAFFDF2F
:1079570050D8A4B1EF3CF0B3EF3CF0A4EF3CF000FB
:10796700016051625D606F61516359616F12000878
:1079770004040A111F110002040E111F100E000249
:10798700041F101E101F0008040E111F100E000800
:10799700041F101E101F00040A0E111F100E0008EE
:1079A700040E010F110F00040A0E010F110F0080C2
:1079B700908082808400F0E4EC3BF00001606F600F
:1079C70039F00B0001616F8094808400F0E4EC3B98
:1079D700F0000161138094000161BFF5EF3CF0F7FF
:1079E700EF3CF0DDEF3CF08092000161517F0B121C
:1079F70000760EF66E790EF76E000EF86E01EEAC9D
:107A0700F010EE40F00900F5CFEEFFE550E150FA37
:107A1700E1D70EF66E780EF76E000EF86E00EEA93F
:107A2700F010EE31F00900F5CFEEFFE550E150FA26
:107A3700E1000153EF3CF0000E00017B6F79C07449
:107A4700F07AC075F01AEC3FF002EC3CF0F6EC3B34
:107A5700F000017B6F0D0E00017B19D8B436EF3DA6
:107A6700F038EF3DF028EF3DF01B0E00017B19D8F1
:107A7700B440EF3DF042EF3DF028EF3DF01200003B
:107A870001636F0001635184EC3CF00001646F5C9B
:107A9700EF3DF0C00ECDEC3DF06CEF3DF0940ECD18
:107AA700EC3DF06CEF3DF0D40ECDEC3DF06CEF3DCE
:107AB700F000016451940AD8B44DEF3DF0540AD850
:107AC700B457EF3DF0140AD8B452EF3DF06CEF3DD8
:107AD700F01200D6C060F0D7C061F0D8C062F0D90C
:107AE700C063F06D0E0001646F4E0E656FC60E66C3
:107AF7006F410E676F03EC3EF060C0D6F061C0D7F0
:107B0700F062C0D8F063C0D9F0390E0001D6273033
:107B17000ED723000ED823000ED923FF0ED8156CDD
:107B27006F7F0ED9156D6F1200000E956E0D0E004A
:107B370001626FFB0EE82EFED7622FFCD700F00024
:107B4700F080908092030E0EEC3CF0E7EC3BF003E4
:107B57000EE82EFED700F0030E0EEC3CF0E7EC3BF0
:107B6700F0030EE82EFED700F0030E0EEC3CF0E714
:107B7700EC3BF0030EE82EFED700F0020E0EEC3CB5
:107B8700F0E7EC3BF0030EE82EFED700F00F0E9562
:107B97006E12000001626FDBEC3CF0000E956E8008
:107BA700908092000162390F0B0EEC3CF0E7EC3B42
:107BB700F0000162510EEC3CF0E7EC3BF0030EE8FD
:107BC7002EFED700F000016205D8B4EDEF3DF0EFCF
:107BD700EF3DF0F9EF3DF0020E00016219D8A4F76E
:107BE700EF3DF0F9EF3DF0FEEF3DF0A60EE82EFE7B
:107BF700D700F000F00F0E956EDBEC3CF0120000A2
:107C07000E0001686F000E696F000E6A6F000E6B41
:107C17006F60A111EF3EF013EF3EF01BEF3EF064F3
:107C27005168276551692366516A2367516B23D8C9
:107C3700906437653766376737D890633362336147
:107C47003360336051611162116311D8A42EEF3E86
:107C5700F030EF3EF00CEF3EF068C060F069C061B5
:107C6700F06AC062F06BC063F012000001646F5DE0
:107C7700EF3EF0000164517F0F8009CDEC3DF071BC
:107C8700EF3EF000016451BF0F8009CDEC3DF0716C
:107C9700EF3EF000016451930F8009CDEC3DF07188
:107CA700EF3EF000016451D30F8009CDEC3DF07138
:107CB700EF3EF000016351010AD8B43DEF3EF003F7
:107CC7000AD8B445EF3EF0010AD8B44DEF3EF007AD
:107CD7000AD8B455EF3EF071EF3EF01200400ECDDA
:107CE700EC3DF0000E0001656F070E000165657F32
:107CF700EF3EF081EF3EF083EF3EF0BEEF3EF00047
:107D07000E0001666F070E000166658DEF3EF08F6E
:107D1700EF3EF091EF3EF0B3EF3EF0000165510802
:107D27000DAC0EF3240001636F010EF420646F00A5
:107D370001665100016325D96E0001000E00016440
:107D470021DA6EDF5084EC3CF00001662B070E0051
:107D5700016665B1EF3EF0B3EF3EF091EF3EF00004
:107D670001652B070E00016565BCEF3EF0BEEF3ED7
:107D7700F083EF3EF0EBEC3BF01200000E000173D6
:107D87006F6FBFCBEF3EF0C9EF3EF0D1EF3EF06E25
:107D97006D6F1FD8B06F2B010E736F71BFD8EF3E99
:107DA700F0D6EF3EF0DCEF3EF0706D711FD8B0718A
:107DB7002B70517111D8B4E3EF3EF0E5EF3EF009B7
:107DC700EF3FF0010E726FEDEF3EF0D89070377114
:107DD70037722B71AFF2EF3EF0F4EF3EF0E9EF3E72
:107DE700F070516E5D71516F59D8A0FDEF3EF0FFF5
:107DF700EF3EF003EF3FF070516E5F71516F5BD84C
:107E07009071337033722FF4EF3EF07351D8B40F83
:107E1700EF3FF011EF3FF015EF3FF06E6D6F1FD89A
:107E2700B06F2B6EC06EF06FC06FF0120074C06041
:107E3700F075C061F09EEC3CF0000160510101A4B7
:107E47006F000E0101A56F000E0101A16F000EA0CA
:107E57006F000E0101A36F000EA26F000E0101A9B2
:107E67006F000EA86F0101A9BF43EF3FF0A95109A9
:107E7700E1050EA85DD8A043EF3FF045EF3FF0477F
:107E8700EF3FF0A3EF3FF0000E0101AB6F000EAA2A
:107E97006F0101ABBF59EF3FF0AB5109E1150EAAD6
:107EA7005DD8A059EF3FF05BEF3FF05DEF3FF091FA
:107EB700EF3FF0A8C160F0A9C161F0000E000163B7
:107EC7006F280E626F2BEC3CF0000E00016025005E
:107ED70001766F010E000161210001776FD89001D3
:107EE70001AA35D96EAB35DA6E00017651D92677FE
:107EF70051DA22DE6ADD6A0101AA4BAB2B0101AB25
:107F0700BF8FEF3FF0AB5109E1150EAA5DD8A08FE7
:107F1700EF3FF091EF3FF05DEF3FF00101A84BA974
:107F27002B0101A9BFA1EF3FF0A95109E1050EA857
:107F37005DD8A0A1EF3FF0A3EF3FF047EF3FF00080
:107F47000E0101A76F000EA66FDDEF3FF00101A63E
:107F57005100017425D96E0101A75100017521DA7D
:107F67006EDF500101A56F6DEC3DF06CC06EF06DDA
:107F7700C06FF0000E0001716F140E706FC1EC3E00
:107F8700F06EC0A0F16FC0A1F16DEC3DF0030E00E3
:107F9700016C150101A26FA36BA2C163F00101A0DF
:107FA7005139EC3EF00101A55143EC3DF00101A62A
:107FB7004BA72B0101A4510001766F776B0101A636
:107FC700510001765D7751800A786F0101A75180D2
:107FD7000A00017859D8B0F3EF3FF0F5EF3FF0AA68
:107FE700EF3FF00101C805C911D8B4FDEF3FF0FF1D
:097FF700EF3FF0A3EF3FF0120090
:020000040020DA
:08000000FFFFFFFFFFFFFFFF00
:020000040030CA
:0E000000FF081F1EFF8B81FF0FC00FE00F4097
:00000001FF
