:040000005DEF3FF081
:107E7A0046EC3FF09BEC3FF000F042EF3FF000EFA2
:107E8A0000F0000E936E000E946E000E7F6E000ED0
:107E9A00816E010E826E12000000FC00FA00F600EC
:107EAA00EE00DE00000002000400080010002000BE
:107EBA00A20EF66E7E0EF76E000EF86E00EE81F0E0
:107ECA0010EE18F00900F5CFEEFFE550E150FAE1A7
:107EDA0000013DEF3FF020EE8DF010EE64F00B0E46
:107EEA00DBCFE3FFE806FCE220EE81F010EE70F053
:107EFA000B0EDBCFE3FFE806FCE2D8900001603509
:107F0A00D96E6135DA6E640ED926000EDA22DF5098
:107F1A00816ED89000016235D96E6335DA6E700EC3
:107F2A00D926000EDA22DF50826E1200000E0001FE
:107F3A007E6F000E7D6F00017EBFADEF3FF07E5178
:107F4A0009E1060E7D5DD8A0ADEF3FF0AFEF3FF03F
:107F5A00B1EF3FF0FFEF3FF0000E0001806F000E1F
:107F6A007F6F000180BFC3EF3FF0805109E1060E29
:107F7A007F5DD8A0C3EF3FF0C5EF3FF0C7EF3FF0FA
:107F8A00EDEF3FF07DC060F07EC061F07FC062F02F
:107F9A0080C063F070EC3FF0620E00017C6F650EEA
:107FAA00E82EFED77C2FFCD700F000F000017F4BB3
:107FBA00802B000180BFEBEF3FF0805109E1060EF4
:107FCA007F5DD8A0EBEF3FF0EDEF3FF0C7EF3FF05A
:107FDA0000017D4B7E2B00017EBFFDEF3FF07E51FD
:107FEA0009E1060E7D5DD8A0FDEF3FF0FFEF3FF0FF
:067FFA00B1EF3FF01200A0
:020000040020DA
:08000000FFFFFFFFFFFFFFFF00
:020000040030CA
:0E000000FF081F1EFF8B81FF0FC00FE00F4097
:00000001FF
